:100000000C946B000C947D000C947D000C947D008E
:100010000C947D000C947D000C947D000C947D006C
:100020000C947D000C947D000C947D000C947D005C
:100030000C947D000C947D000C947D000C947D004C
:100040000C9408010C947D000C947D000C947D00B0
:100050000C947D000C947D000C947D000C947D002C
:100060000C947D000C947D0005A84CCDB2D44EB903
:100070003836A9020C50B9918688083CA6AAAA2A4B
:10008000BE000000803F00000008000201000003E5
:100090000407000000000000000000000000250030
:1000A00028002B0000000000240027002A00040480
:1000B0000404040404040202020202020303030310
:1000C00003030102040810204080010204081020EC
:1000D00001020408102011241FBECFEFD8E0DEBFBC
:1000E000CDBF24E0A0E0B1E001C01D92A13FB20766
:1000F000E1F70E9452010C94F5040C940000ECEC22
:10010000F0E02491E8EBF0E08491882399F090E00E
:10011000880F991FFC01EC55FF4FA591B491FC018C
:10012000E656FF4F859194918FB7F894EC91E22BAE
:10013000EC938FBF0895E0E9F0E02491ECECF0E05F
:100140009491E8EBF0E0E491EE23C9F0222339F03A
:10015000233001F1A8F4213019F1223029F1F0E027
:10016000EE0FFF1FE656FF4FA591B4912FB7F894FD
:10017000EC91811126C090959E239C932FBF0895EA
:100180002730A9F02830C9F0243049F720918000A9
:100190002F7D03C0209180002F7720938000DFCF38
:1001A00024B52F7724BDDBCF24B52F7DFBCF209145
:1001B000B0002F772093B000D2CF2091B0002F7DD8
:1001C000F9CF9E2BDACF3FB7F8948091050190913B
:1001D0000601A0910701B091080126B5A89B05C0B2
:1001E0002F3F19F00196A11DB11D3FBFBA2FA92FB6
:1001F000982F8827BC01CD01620F711D811D911DB3
:1002000042E0660F771F881F991F4A95D1F708951E
:100210001F920F920FB60F9211242F933F938F933B
:100220009F93AF93BF938091010190910201A091A0
:100230000301B09104013091000123E0230F2D3719
:1002400058F50196A11DB11D209300018093010175
:1002500090930201A0930301B093040180910501E2
:1002600090910601A0910701B09108010196A11D8E
:10027000B11D8093050190930601A0930701B093EF
:100280000801BF91AF919F918F913F912F910F9056
:100290000FBE0F901F90189526E8230F0296A11D00
:1002A000B11DD2CF789484B5826084BD84B581605D
:1002B00084BD85B5826085BD85B5816085BD809131
:1002C0006E00816080936E001092810080918100A9
:1002D00082608093810080918100816080938100A1
:1002E000809180008160809380008091B100846063
:1002F0008093B1008091B00081608093B0008091C4
:100300007A00846080937A0080917A008260809382
:100310007A0080917A00816080937A0080917A00DF
:10032000806880937A001092C1000E947F0009E0EB
:1003300011E0D0E0C0E0BE010D2E000C880B990B3F
:100340000E946C0320E030E04AEF53E40E94C202B6
:1003500024E333E34BEF52E40E94F8030E94650468
:1003600020E030E040E85FE30E94560220E030E009
:100370004EEF52E40E94F8030E943403F8016193A7
:1003800071938F012196C43FF1E0DF07A1F601EFE1
:1003900014E020E9822E20E0922E30E0A32E30E0FF
:1003A000B32EC9E0D1E0E990F9900E947F00E114FA
:1003B000F10441F580E00E949B000E94E3006B0184
:1003C0007C0192E0492E512C612C712C0E94E3009B
:1003D0006C197D098E099F09683E7340810591055E
:1003E000A8F328EEC20E23E0D21EE11CF11C4A94B1
:1003F00045284628472809F44DC0412C512C32018C
:100400004394E4CF2FEFE216F10411F481E0D3CF4F
:10041000F4018491833021F148F48130B9F08230C5
:10042000D1F0F0E8EF16F1048CF7C4CF873011F16A
:10043000883041F18430A9F78091800080628093F8
:100440008000F0928B00E0928A00B7CF84B580687C
:1004500084BDE7BCB2CF84B5806284BDE8BCADCFBB
:1004600080918000806880938000F0928900E09203
:100470008800A3CF8091B00080688093B000E092A4
:10048000B3009BCF8091B00080628093B000E09277
:10049000B40093CF0C171D0709F085CFA114B10448
:1004A00009F47FCF0E9400007CCF5058BB27AA27B9
:1004B0000E946D020C94BE030E94B00338F00E94AB
:1004C000B70320F039F49F3F19F426F40C94AD03E0
:1004D0000EF4E095E7FB0C94A703E92F0E94CF03ED
:1004E00058F3BA17620773078407950720F079F469
:1004F000A6F50C94F1030EF4E0950B2EBA2FA02D67
:100500000B01B90190010C01CA01A0011124FF27C0
:10051000591B99F0593F50F4503E68F11A16F040BB
:10052000A22F232F342F4427585FF3CF46953795BA
:100530002795A795F0405395C9F77EF41F16BA0B7F
:10054000620B730B840BBAF09150A1F0FF0FBB1F2D
:10055000661F771F881FC2F70EC0BA0F621F731F76
:10056000841F48F4879577956795B795F7959E3FD3
:1005700008F0B0CF9395880F08F09927EE0F979564
:10058000879508950E94D6020C94BE030E94B7037B
:1005900058F00E94B00340F029F45F3F29F00C941A
:1005A000A70351110C94F2030C94AD030E94CF03E6
:1005B00068F39923B1F3552391F3951B550BBB2792
:1005C000AA2762177307840738F09F5F5F4F220FD7
:1005D000331F441FAA1FA9F335D00E2E3AF0E0E8CE
:1005E00032D091505040E695001CCAF72BD0FE2F18
:1005F00029D0660F771F881FBB1F261737074807AC
:10060000AB07B0E809F0BB0B802DBF01FF27935863
:100610005F4F3AF09E3F510578F00C94A7030C947D
:10062000F2035F3FE4F3983ED4F3869577956795A0
:10063000B795F7959F5FC9F7880F911D9695879598
:1006400097F90895E1E0660F771F881FBB1F6217B7
:1006500073078407BA0720F0621B730B840BBA0B75
:10066000EE1F88F7E09508950E943B036894B1114E
:100670000C94F20308950E94D70388F09F5798F0D6
:10068000B92F9927B751B0F0E1F0660F771F881F97
:10069000991F1AF0BA95C9F714C0B13091F00E94B1
:1006A000F103B1E008950C94F103672F782F8827A8
:1006B000B85F39F0B93FCCF3869577956795B395D8
:1006C000D9F73EF490958095709561957F4F8F4F47
:1006D0009F4F0895E89409C097FB3EF4909580954C
:1006E000709561957F4F8F4F9F4F9923A9F0F92FF8
:1006F00096E9BB279395F695879577956795B79576
:10070000F111F8CFFAF4BB0F11F460FF1BC06F5F5B
:100710007F4F8F4F9F4F16C0882311F096E911C06D
:10072000772321F09EE8872F762F05C0662371F08E
:1007300096E8862F70E060E02AF09A95660F771FA2
:10074000881FDAF7880F9695879597F9089597F996
:100750009F6780E870E060E008959FEF80EC089567
:1007600000240A9416161706180609060895002490
:100770000A9412161306140605060895092E03940A
:10078000000C11F4882352F0BB0F40F4BF2B11F47E
:1007900060FF04C06F5F7F4F8F4F9F4F089557FDDD
:1007A0009058440F551F59F05F3F71F04795880FDF
:1007B00097FB991F61F09F3F79F087950895121676
:1007C00013061406551FF2CF4695F1DF08C0161622
:1007D00017061806991FF1CF8695710561050894D3
:1007E0000895E894BB2766277727CB0197F90895EA
:1007F0000E940B040C94BE030E94B00338F00E94C8
:10080000B70320F0952311F00C94A7030C94AD03CB
:1008100011240C94F2030E94CF0370F3959FC1F34F
:10082000950F50E0551F629FF001729FBB27F00D9E
:10083000B11D639FAA27F00DB11DAA1F649F6627F3
:10084000B00DA11D661F829F2227B00DA11D621F42
:10085000739FB00DA11D621F839FA00D611D221FFC
:10086000749F3327A00D611D231F849F600D211DE0
:10087000822F762F6A2F11249F5750409AF0F1F063
:1008800088234AF0EE0FFF1FBB1F661F771F881FCC
:1008900091505040A9F79E3F510580F00C94A7035A
:1008A0000C94F2035F3FE4F3983ED4F3869577957A
:1008B0006795B795F795E7959F5FC1F7FE2B880F72
:1008C000911D9695879597F908959F930E946F04BF
:1008D0000F9007FCEE5F0C9498040C94AD030E94FB
:1008E000D703D8F3E894E0E0BB279F57F0F02AED58
:1008F0003FE049EC06C0EE0FBB0F661F771F881F55
:1009000028F0B23A62077307840728F0B25A620BE4
:10091000730B840BE3959A9572F7803830F49A95AF
:10092000BB0F661F771F881FD2F790480C94AE0448
:10093000EF93E0FF07C0A2EA2AED3FE049EC5FEB4E
:100940000E946D020E94BE030F90039401FC905818
:10095000E8E6F0E00C94BA049F3F31F0915020F4A7
:10096000879577956795B795880F911D969587958B
:1009700097F908959F938F937F936F93FF93EF93CE
:100980009B01AC010E94F803EF91FF910E94CE04FD
:100990002F913F914F915F910C94F803DF93CF9388
:1009A0001F930F93FF92EF92DF927B018C0168946B
:1009B00006C0DA2EEF010E940B04FE01E894A59117
:1009C0002591359145915591A6F3EF010E946D0255
:1009D000FE019701A801DA9469F7DF90EF90FF908C
:0E09E0000F911F91CF91DF910895F894FFCFF2
:00000001FF
